{
  "contractName": "Realestate",
  "abi": [
    {
      "constant": true,
      "inputs": [
        {
          "name": "",
          "type": "uint256"
        }
      ],
      "name": "houses",
      "outputs": [
        {
          "name": "id",
          "type": "uint256"
        },
        {
          "name": "title",
          "type": "string"
        },
        {
          "name": "seller",
          "type": "address"
        },
        {
          "name": "streetAddress",
          "type": "string"
        },
        {
          "name": "price",
          "type": "uint256"
        },
        {
          "name": "buyer",
          "type": "address"
        }
      ],
      "payable": false,
      "stateMutability": "view",
      "type": "function"
    },
    {
      "constant": true,
      "inputs": [],
      "name": "housesCount",
      "outputs": [
        {
          "name": "",
          "type": "uint256"
        }
      ],
      "payable": false,
      "stateMutability": "view",
      "type": "function"
    },
    {
      "inputs": [],
      "payable": false,
      "stateMutability": "nonpayable",
      "type": "constructor"
    },
    {
      "constant": false,
      "inputs": [
        {
          "name": "title",
          "type": "string"
        },
        {
          "name": "streetAddress",
          "type": "string"
        },
        {
          "name": "price",
          "type": "uint256"
        }
      ],
      "name": "addHouse",
      "outputs": [],
      "payable": false,
      "stateMutability": "nonpayable",
      "type": "function"
    },
    {
      "constant": false,
      "inputs": [
        {
          "name": "houseId",
          "type": "uint256"
        }
      ],
      "name": "buyHouse",
      "outputs": [],
      "payable": true,
      "stateMutability": "payable",
      "type": "function"
    }
  ],
  "bytecode": "0x608060405234801561001057600080fd5b506100966040805190810160405280600c81526020017f6e686120637561205468616900000000000000000000000000000000000000008152506040805190810160405280600681526020017f54702e48434d000000000000000000000000000000000000000000000000000081525060016101a5640100000000026401000000009004565b61011b6040805190810160405280600d81526020017f6e686120637561205468616932000000000000000000000000000000000000008152506040805190810160405280600681526020017f4861204e6f69000000000000000000000000000000000000000000000000000081525060026101a5640100000000026401000000009004565b6101a06040805190810160405280600c81526020017f6e686120637561205468616900000000000000000000000000000000000000008152506040805190810160405280600681526020017f54702e48434d000000000000000000000000000000000000000000000000000081525060036101a5640100000000026401000000009004565b6103b7565b600060016000815480929190600101919050555033905060c06040519081016040528060015481526020018581526020018273ffffffffffffffffffffffffffffffffffffffff168152602001848152602001838152602001600073ffffffffffffffffffffffffffffffffffffffff168152506000806001548152602001908152602001600020600082015181600001556020820151816001019080519060200190610253929190610312565b5060408201518160020160006101000a81548173ffffffffffffffffffffffffffffffffffffffff021916908373ffffffffffffffffffffffffffffffffffffffff16021790555060608201518160030190805190602001906102b7929190610312565b506080820151816004015560a08201518160050160006101000a81548173ffffffffffffffffffffffffffffffffffffffff021916908373ffffffffffffffffffffffffffffffffffffffff16021790555090505050505050565b828054600181600116156101000203166002900490600052602060002090601f016020900481019282601f1061035357805160ff1916838001178555610381565b82800160010185558215610381579182015b82811115610380578251825591602001919060010190610365565b5b50905061038e9190610392565b5090565b6103b491905b808211156103b0576000816000905550600101610398565b5090565b90565b6107ba806103c66000396000f300608060405260043610610062576000357c0100000000000000000000000000000000000000000000000000000000900463ffffffff168063aeda852f14610067578063b0e4511f146101ed578063df09440914610218578063eddc4269146102d1575b600080fd5b34801561007357600080fd5b50610092600480360381019080803590602001909291905050506102f1565b60405180878152602001806020018673ffffffffffffffffffffffffffffffffffffffff1673ffffffffffffffffffffffffffffffffffffffff168152602001806020018581526020018473ffffffffffffffffffffffffffffffffffffffff1673ffffffffffffffffffffffffffffffffffffffff168152602001838103835288818151815260200191508051906020019080838360005b8381101561014657808201518184015260208101905061012b565b50505050905090810190601f1680156101735780820380516001836020036101000a031916815260200191505b50838103825286818151815260200191508051906020019080838360005b838110156101ac578082015181840152602081019050610191565b50505050905090810190601f1680156101d95780820380516001836020036101000a031916815260200191505b509850505050505050505060405180910390f35b3480156101f957600080fd5b5061020261049d565b6040518082815260200191505060405180910390f35b34801561022457600080fd5b506102cf600480360381019080803590602001908201803590602001908080601f0160208091040260200160405190810160405280939291908181526020018383808284378201915050505050509192919290803590602001908201803590602001908080601f0160208091040260200160405190810160405280939291908181526020018383808284378201915050505050509192919290803590602001909291905050506104a3565b005b6102ef60048036038101908080359060200190929190505050610610565b005b6000602052806000526040600020600091509050806000015490806001018054600181600116156101000203166002900480601f0160208091040260200160405190810160405280929190818152602001828054600181600116156101000203166002900480156103a35780601f10610378576101008083540402835291602001916103a3565b820191906000526020600020905b81548152906001019060200180831161038657829003601f168201915b5050505050908060020160009054906101000a900473ffffffffffffffffffffffffffffffffffffffff1690806003018054600181600116156101000203166002900480601f0160208091040260200160405190810160405280929190818152602001828054600181600116156101000203166002900480156104675780601f1061043c57610100808354040283529160200191610467565b820191906000526020600020905b81548152906001019060200180831161044a57829003601f168201915b5050505050908060040154908060050160009054906101000a900473ffffffffffffffffffffffffffffffffffffffff16905086565b60015481565b600060016000815480929190600101919050555033905060c06040519081016040528060015481526020018581526020018273ffffffffffffffffffffffffffffffffffffffff168152602001848152602001838152602001600073ffffffffffffffffffffffffffffffffffffffff1681525060008060015481526020019081526020016000206000820151816000015560208201518160010190805190602001906105519291906106e9565b5060408201518160020160006101000a81548173ffffffffffffffffffffffffffffffffffffffff021916908373ffffffffffffffffffffffffffffffffffffffff16021790555060608201518160030190805190602001906105b59291906106e9565b506080820151816004015560a08201518160050160006101000a81548173ffffffffffffffffffffffffffffffffffffffff021916908373ffffffffffffffffffffffffffffffffffffffff16021790555090505050505050565b600033905060008083815260200190815260200160002060020160009054906101000a900473ffffffffffffffffffffffffffffffffffffffff1673ffffffffffffffffffffffffffffffffffffffff166108fc349081150290604051600060405180830381858888f19350505050158015610690573d6000803e3d6000fd5b508060008084815260200190815260200160002060050160006101000a81548173ffffffffffffffffffffffffffffffffffffffff021916908373ffffffffffffffffffffffffffffffffffffffff1602179055505050565b828054600181600116156101000203166002900490600052602060002090601f016020900481019282601f1061072a57805160ff1916838001178555610758565b82800160010185558215610758579182015b8281111561075757825182559160200191906001019061073c565b5b5090506107659190610769565b5090565b61078b91905b8082111561078757600081600090555060010161076f565b5090565b905600a165627a7a7230582050a2258ce766543697184d275ec7bdf8f2386ad8cd594ec11b63f4380fabe4150029",
  "source": "pragma solidity ^0.4.17;\r\n\r\n\r\ncontract Realestate {\r\n    // model a house\r\n    struct House {\r\n        uint id;\r\n        string title;\r\n        address seller;\r\n        string streetAddress;\r\n        uint256 price;\r\n        address buyer;\r\n    }\r\n\r\n    mapping (uint=>House) public houses;\r\n\r\n    uint public housesCount;\r\n\r\n    constructor() public {\r\n        addHouse(\"nha cua Thai\", \"Tp.HCM\", 1);\r\n        addHouse(\"nha cua Thai2\", \"Ha Noi\", 2);\r\n        addHouse(\"nha cua Thai\", \"Tp.HCM\", 3);\r\n    }\r\n\r\n    function addHouse(string title, string streetAddress, uint256 price) public {\r\n        housesCount++;\r\n        address host = msg.sender;\r\n        houses[housesCount] = House(housesCount, title, host, streetAddress, price, 0x0);\r\n    }\r\n\r\n    function buyHouse(uint houseId) payable public {\r\n      //  require(msg.value/1 ether == houses[houseId].price);\r\n        address buyer = msg.sender;\r\n        houses[houseId].seller.transfer(msg.value);\r\n        houses[houseId].buyer = buyer;\r\n    }\r\n}",
  "sourcePath": "C:\\Users\\User\\Desktop\\testProjects\\demoDapp\\contracts\\Realestate.sol",
  "compiler": {
    "name": "solc",
    "version": "0.4.24+commit.e67f0147.Emscripten.clang"
  },
  "schemaVersion": "2.0.0",
  "updatedAt": "2018-07-21T17:28:01.787Z"
}