{
  "contractName": "Realestate",
  "abi": [
    {
      "constant": true,
      "inputs": [
        {
          "name": "",
          "type": "uint256"
        }
      ],
      "name": "houses",
      "outputs": [
        {
          "name": "id",
          "type": "uint256"
        },
        {
          "name": "title",
          "type": "string"
        },
        {
          "name": "seller",
          "type": "address"
        },
        {
          "name": "streetAddress",
          "type": "string"
        },
        {
          "name": "price",
          "type": "uint256"
        }
      ],
      "payable": false,
      "stateMutability": "view",
      "type": "function"
    },
    {
      "constant": true,
      "inputs": [],
      "name": "housesCount",
      "outputs": [
        {
          "name": "",
          "type": "uint256"
        }
      ],
      "payable": false,
      "stateMutability": "view",
      "type": "function"
    },
    {
      "inputs": [],
      "payable": false,
      "stateMutability": "nonpayable",
      "type": "constructor"
    },
    {
      "constant": false,
      "inputs": [
        {
          "name": "title",
          "type": "string"
        },
        {
          "name": "streetAddress",
          "type": "string"
        },
        {
          "name": "price",
          "type": "uint256"
        }
      ],
      "name": "addHouse",
      "outputs": [],
      "payable": false,
      "stateMutability": "nonpayable",
      "type": "function"
    },
    {
      "constant": false,
      "inputs": [
        {
          "name": "houseId",
          "type": "uint256"
        }
      ],
      "name": "buyHouse",
      "outputs": [],
      "payable": true,
      "stateMutability": "payable",
      "type": "function"
    }
  ],
  "bytecode": "0x608060405234801561001057600080fd5b5061009d6040805190810160405280600c81526020017f6e686120637561205468616900000000000000000000000000000000000000008152506040805190810160405280600681526020017f54702e48434d0000000000000000000000000000000000000000000000000000815250670de0b6b3a764000061012e640100000000026401000000009004565b6101296040805190810160405280600d81526020017f6e686120637561205468616932000000000000000000000000000000000000008152506040805190810160405280600681526020017f4861204e6f690000000000000000000000000000000000000000000000000000815250671bc16d674ec8000061012e640100000000026401000000009004565b6102dc565b600060016000815480929190600101919050555033905060a06040519081016040528060015481526020018581526020018273ffffffffffffffffffffffffffffffffffffffff1681526020018481526020018381525060008060015481526020019081526020016000206000820151816000015560208201518160010190805190602001906101bf929190610237565b5060408201518160020160006101000a81548173ffffffffffffffffffffffffffffffffffffffff021916908373ffffffffffffffffffffffffffffffffffffffff1602179055506060820151816003019080519060200190610223929190610237565b506080820151816004015590505050505050565b828054600181600116156101000203166002900490600052602060002090601f016020900481019282601f1061027857805160ff19168380011785556102a6565b828001600101855582156102a6579182015b828111156102a557825182559160200191906001019061028a565b5b5090506102b391906102b7565b5090565b6102d991905b808211156102d55760008160009055506001016102bd565b5090565b90565b61062d806102eb6000396000f300608060405260043610610062576000357c0100000000000000000000000000000000000000000000000000000000900463ffffffff168063aeda852f14610067578063b0e4511f146101ba578063df094409146101e5578063eddc42691461029e575b600080fd5b34801561007357600080fd5b50610092600480360381019080803590602001909291905050506102be565b60405180868152602001806020018573ffffffffffffffffffffffffffffffffffffffff1673ffffffffffffffffffffffffffffffffffffffff16815260200180602001848152602001838103835287818151815260200191508051906020019080838360005b838110156101145780820151818401526020810190506100f9565b50505050905090810190601f1680156101415780820380516001836020036101000a031916815260200191505b50838103825285818151815260200191508051906020019080838360005b8381101561017a57808201518184015260208101905061015f565b50505050905090810190601f1680156101a75780820380516001836020036101000a031916815260200191505b5097505050505050505060405180910390f35b3480156101c657600080fd5b506101cf610444565b6040518082815260200191505060405180910390f35b3480156101f157600080fd5b5061029c600480360381019080803590602001908201803590602001908080601f0160208091040260200160405190810160405280939291908181526020018383808284378201915050505050509192919290803590602001908201803590602001908080601f01602080910402602001604051908101604052809392919081815260200183838082843782019150505050505091929192908035906020019092919050505061044a565b005b6102bc60048036038101908080359060200190929190505050610553565b005b6000602052806000526040600020600091509050806000015490806001018054600181600116156101000203166002900480601f0160208091040260200160405190810160405280929190818152602001828054600181600116156101000203166002900480156103705780601f1061034557610100808354040283529160200191610370565b820191906000526020600020905b81548152906001019060200180831161035357829003601f168201915b5050505050908060020160009054906101000a900473ffffffffffffffffffffffffffffffffffffffff1690806003018054600181600116156101000203166002900480601f0160208091040260200160405190810160405280929190818152602001828054600181600116156101000203166002900480156104345780601f1061040957610100808354040283529160200191610434565b820191906000526020600020905b81548152906001019060200180831161041757829003601f168201915b5050505050908060040154905085565b60015481565b600060016000815480929190600101919050555033905060a06040519081016040528060015481526020018581526020018273ffffffffffffffffffffffffffffffffffffffff1681526020018481526020018381525060008060015481526020019081526020016000206000820151816000015560208201518160010190805190602001906104db92919061055c565b5060408201518160020160006101000a81548173ffffffffffffffffffffffffffffffffffffffff021916908373ffffffffffffffffffffffffffffffffffffffff160217905550606082015181600301908051906020019061053f92919061055c565b506080820151816004015590505050505050565b60003390505050565b828054600181600116156101000203166002900490600052602060002090601f016020900481019282601f1061059d57805160ff19168380011785556105cb565b828001600101855582156105cb579182015b828111156105ca5782518255916020019190600101906105af565b5b5090506105d891906105dc565b5090565b6105fe91905b808211156105fa5760008160009055506001016105e2565b5090565b905600a165627a7a72305820ffd6a7c768fb87a066cebefc331f63b1dda1812eb1f04723b6740dea495ffeb40029",
  "source": "pragma solidity ^0.4.17;\r\n\r\n\r\ncontract Realestate {\r\n    // model a house\r\n    struct House {\r\n        uint id;\r\n        string title;\r\n        address seller;\r\n        string streetAddress;\r\n        uint256 price;\r\n    }\r\n\r\n    mapping (uint=>House) public houses;\r\n\r\n    uint public housesCount;\r\n\r\n    function Realestate() public {\r\n        addHouse(\"nha cua Thai\", \"Tp.HCM\", 1000000000000000000);\r\n        addHouse(\"nha cua Thai2\", \"Ha Noi\", 2000000000000000000);\r\n\r\n    }\r\n\r\n    function addHouse(string title, string streetAddress, uint256 price) public {\r\n        housesCount++;\r\n        address host = msg.sender;\r\n        houses[housesCount] = House(housesCount, title, host, streetAddress, price);\r\n    }\r\n\r\n    function buyHouse(uint256 houseId) payable public {\r\n        address buyer = msg.sender;\r\n\r\n    }\r\n}",
  "sourcePath": "C:\\Users\\User\\Desktop\\testProjects\\demoDapp\\contracts\\Realestate.sol",
  "compiler": {
    "name": "solc",
    "version": "0.4.24+commit.e67f0147.Emscripten.clang"
  },
  "schemaVersion": "2.0.0",
  "updatedAt": "2018-07-19T15:03:57.552Z"
}